:100B2F004573636F6C686120646520646174610A4A
:100B3F00003A2000486F7261004D696E75746F0046
:100B4F00736567756E646F00446961004D6573006E
:100B5F00416E6F004469612073656D616E6100289D
:100B6F00302D3132682F312D32346829003A000A86
:100B7F0000202D2000417475616C00416C61726D15
:100B8F0065000D416C61726D65200A417469766173
:100B9F00646F000D416C61726D65200A446573616D
:100BAF0074697661646F000D416C61726D6521210E
:100BBF000A00416C61726D65212100536F6E656390
:020BCF006100C3
:071026001210CE7F0A7E00CC
:10102D00E4FDFCC3ED9FEC9E5015E4FBFA0BBB00F9
:10103D00010ABA04F8BBFBF50DBD00010C80E422DA
:1010CE008F80C2A5C2A6D2A77F017E0012102DC2AC
:0210DE00A72247
:1010E0008F80D2A5C2A6D2A77F017E0012102DC28A
:0210F000A72235
:101096007F381210267F0F1210267F011210267F2E
:1010A600811210267F801210CE7F0A7E0002102D3C
:051161007F010210CE29
:060DA1007BFF7A0B797C58
:100DA7008B1A8A1B891CE4F51DF51E1208F6B40D73
:100DB70009121161751D00751E01AB1AAA1BA91C2A
:100DC700851E82851D8312090F6027B40A077FC01D
:100DD7001210CE8013AB1AAA1BA91C851E82851D73
:100DE7008312090FFF1210E0051EE51E70CC051DCA
:030DF70080C8228F
:100EF100E515652060028038E514651F60028030C9
:100F0100E513651E60028028E52645257004FE7FF5
:100F11000122E512651D60028016E511651C600263
:100F2100800EE510651B60028006E50F651A6004FE
:090F3100E4FEFF227E007F012294
:1010B6001211661211047FD01210077F0712100753
:0810C600E4FF121007021122E1
:05116600D2C0D2C1223D
:100D42008B3D8A3E893F1211047FD0121007E4FFC7
:100D5200121007900006120FFD900005120FFDAB56
:100D62003DAA3EA93F900004121003AB3DAA3EA942
:100D72003F900002121003AB3DAA3EA93F90000330
:100D8200121003AB3DAA3EA93F900001121003AB23
:0F0D92003DAA3EA93F1208F6FF121007021122D8
:060C64007B007A007932EA
:100C6A008B0F8A1089111211047FD0121007E4FF2A
:100C7A001210071211221211047FD11210077F01DC
:100C8A00120F46900006120F3A900005120F3AAB67
:100C9A000FAA10A911900004120F40AB0FAA10A9B5
:100CAA0011900002120F40AB0FAA10A91190000375
:100CBA00120F40AB0FAA10A911900001EF12094EB2
:100CCA00E4FF120F46AB0FAA10A911EF12093C025A
:020CDA001122E5
:0D0FA6007F017E00120FB3D2C07F017E00DC
:100FB300AB07AA069000007C007D0AAF03AE0212C5
:0F0FC3000970C3E5829FE5839E5003A380E92256
:0F110400C2C0D2C1120FA6C2C1120FAFC2C02209
:0D112200C2C0120FAFC2C1120FA6D2C1226F
:0A0FFD00AB3DAA3EA93F12090FFF09
:101007008F12E4F513E5123392C112115BE5122535
:0F101700E0F5120513E513C3940840E902115BDD
:0C0F3A00AB0FAA10A911EF12094E7F01A5
:100F46008F12E4F513D2C1F9120FA6E51325E0F5C9
:100F560013A2C1E4334213C2C009B908EBE512B4C7
:0D0F6600010512113B8003121143AF13224D
:06115B00120FA6C2C02223
:08113B00C2C112115BD2C122F6
:08114300D2C112115BD2C022DF
:0F11130075C83475CBFF75CAF3D2CA75985022D0
:08114B003098FDAF99C2982213
:10104D00E4FFFE209812C3EF940AEE648094805062
:10105D00070FBF00010E80EBEF640A4E7002FF22F6
:05106D00AF99C29822BA
:100EA4008B1A8A1B891C8C1D8D1EE4FDFCC3ED95D9
:100EB4001EEC951D503612114B8F1FE51F640A60FE
:100EC40024E51F6003B40D0EAB1AAA1BA91C8D8266
:100ED4008C83E402094EAB1AAA1BA91C8D828C8355
:0D0EE400E51F12094E0DBD00010C80C1225A
:081153008F99C2993099FD2229
:101072008B1A8A1B891CE4FDFCAB1AAA1BA91C8DC6
:10108200828C8312090FFF600A1211530DBD0001F9
:041092000C80E622C6
:100FD200AB0FAA10A91112090FFF7B007A00791535
:100FE200EFC4540F243012093CEF540F2430900008
:0B0FF2000112094E900002E402094EBB
:100F73008B1A8A1B891CE4F51DFFFEAB1AAA1BA959
:100F83001C8F828E8312090FFD6015E51DC454F07A
:100F9300F51DED24D0251DF51D0FBF00010E80DBCF
:030FA300AF1D225D
:100DFA008B128A1389141211617BFF7A0B792F12D5
:100E0A000DA7AB12AA13A914120DA77BFF7A0B79AF
:100E1A0040120DA7AB12AA13A9141210727BFF7A03
:100E2A000B79401210727B007A0079157D057C00DF
:100E3A00120EA47B007A007915120DA77B007A00A6
:080E4A007915120F737E0022DE
:1009AF008B0D8A0E890F8C108D117BFF7A0B792F8F
:1009BF001210727BFF7A0B7943120DFAAB0DAA0E50
:1009CF00A90F900004EF12094E7BFF7A0B794812A2
:1009DF000DFAAB0DAA0EA90F900005EF12094E7B71
:1009EF00FF7A0B794F120DFAAB0DAA0EA90F9000DB
:1009FF0006EF12094EE5114510606D7BFF7A0B79FA
:100A0F0057120DFAAB0DAA0EA90F900003EF1209A2
:100A1F004E7BFF7A0B795B120DFAAB0DAA0EA90F65
:100A2F00900001EF12094E7BFF7A0B795F120DFADE
:100A3F00AB0DAA0EA90FEF12093C7BFF7A0B79635E
:100A4F00120DFAAB0DAA0EA90F900002EF12094E6C
:100A5F007BFF7A0B796E120DFAAB0DAA0EA90F90D0
:090A6F000007EE8FF0120982224B
:060BD1007B007A0079327E
:100BD7008B0F8A108911121161900004120FD21223
:100BE7000DA7120DA1900005120FD2120DA7120D1D
:100BF700A1AB0FAA10A911900006120FD8120DA7CA
:100C0700AB12AA13A914120DA77BFF7A0B797E12D8
:100C17000DA7AB0FAA10A911900003120FD8120D40
:100C2700A7120DA1AB0FAA10A911900001120FD89E
:100C3700120DA7120DA1AB0FAA10A9111208F612D7
:100C47000FDB120DA77BFF7A0B7980120DA7AB0F75
:0D0C5700AA10A911900002120FD8020DA7DB
:1010F2001210961211131210B6120E52120CDC02BA
:021102000E528B
:100E520074FFF50AF50B120A7812104D8F0CE50C8F
:100E6200B4650F7B007A0079327D017C001209AFF4
:100E72008006E50C640A6029120C64750800853846
:100E820009E509650B7004E508650A60C97512FF7A
:100E920075130B751484120BD185080A85090B8012
:020EA200B52277
:100CDC00120A787512FF75130B75148A7B007A0053
:100CEC007927120BD712104D8F08E508B4650E7BCF
:100CFC00007A007927E4FDFC1209AF80D3E5086483
:100D0C000A6032E508B461117BFF7A0B7991120D00
:100D1C00A77530007531018013E508B464B27BFF10
:100D2C007A0B79A2120DA7E4F530F5317FE87E033A
:060D3C0012102D809B2225
:100A78007BFF7A0B79B6120DA7E53164014530602A
:100A880003020B2E780F7C00FDFB7A007927FE7F8E
:100A98000B1208D0781A7C007D007B007A0079322E
:100AA8007E007F0B1208D0E4F525F526120EF1EF33
:100AB8004E6073120C647512FF75130B7514C11216
:100AC8000BD112104DA907B90A05D2A5D2A522E962
:100AD80064737040D2A5D2A5F50DF50E120C64759D
:100AE80012FF75130B7514CA120BD112104DA907FA
:100AF800E96473601FE9640A601A7F647E0012105B
:100B08002D050EE50E7002050DC39496E50D648063
:100B1800948040C8C2A5C2A57FF47E0112102DD2D0
:070B2800A5D2A512102D2239
:0300000002112FBB
:0C112F00787FE4F6D8FD75813F0210F2D5
:10080000E709F608DFFA8046E709F208DFFA803EDA
:1008100088828C83E709F0A3DFFA8032E309F608C7
:10082000DFFA8078E309F208DFFA807088828C832F
:10083000E309F0A3DFFA806489828A83E0A3F608E3
:10084000DFFA805889828A83E0A3F208DFFA804CBD
:1008500080D280FA80C680D4806980F28033801094
:1008600080A680EA809A80A880DA80E280CA8033FD
:1008700089828A83ECFAE493A3C8C582C8CCC58375
:10088000CCF0A3C8C582C8CCC583CCDFE9DEE78045
:100890000D89828A83E493A3F608DFF9ECFAA9F0C4
:1008A000EDFB2289828A83ECFAE0A3C8C582C8CC1A
:1008B000C583CCF0A3C8C582C8CCC583CCDFEADE33
:1008C000E880DB89828A83E493A3F208DFF980CC95
:1008D00088F0EF60010E4E60C388F0ED2402B4048E
:1008E0000050B9F582EB2402B4040050AF23234535
:0608F00082239008507302
:1008F600BB010689828A83E0225002E722BBFE0200
:09090600E32289828A83E4932232
:10090F00BB010CE58229F582E5833AF583E022509D
:10091F0006E92582F8E622BBFE06E92582F8E222E7
:0D092F00E58229F582E5833AF583E4932201
:10093C00BB010689828A83F0225002F722BBFE019A
:02094C00F32294
:10094E00F8BB010DE58229F582E5833AF583E8F0DF
:10095E00225006E92582C8F622BBFE05E92582C88B
:02096E00F22273
:10097000EF8DF0A4A8F0CF8CF0A428CE8DF0A42E9B
:02098000FE2255
:10098200F8BB0111E58229F582E5833AF583E8F0A7
:10099200E5F0A3F0225009E92582C8F608A6F02264
:0D09A200BBFE09E92582C8F2E5F008F2224B
:00000001FF
