:080D35003A000A00202D200005
:070C1600120C997F0A7E0019
:100C1D00E4FDFCC3ED9FEC9E5015E4FBFA0BBB000D
:100C2D00010ABA04F8BBFBF50DBD00010C80E422EE
:100CCE00E4F520F5218E228F23E523452270FA22AA
:100CBD00758900438911758CFF758A9BD2A9D28CD9
:010CCD002204
:03000B0002088C5C
:10088C00C0E0C0D075D000C000C006C007C28C0547
:10089C0025E525700205240521E52170020520D3EC
:1008AC00E52594FFE524648094804006752400754A
:1008BC002500AF1FEF3395E0FED3E5259FEE648056
:1008CC00F8E5246480984004D2948002C294D3E565
:1008DC00219414E52064809480401B7520007521C0
:1008EC0000D3E5239400E522648094804008E5233E
:1008FC00152370021522758CFF758A9BC28DD28CC4
:0B090C00D007D006D000D0D0D0E032E1
:100C99008F80C2A5C2A6D2A77F017E00120C1DC2F9
:020CA900A72280
:100CAB008F80D2A5C2A6D2A77F017E00120C1DC2D7
:020CBB00A7226E
:100C61007F38120C167F0F120C167F01120C167FA3
:100C710081120C167F80120C997F0A7E00020C1DD6
:050D43007F01020C9984
:060A6C007BFF7A0D7935D5
:100A72008B198A1A891BE4F51CF51D120800B40DA6
:100A820009120D43751C00751D01AB19AA1AA91B89
:100A9200851D82851C831208196027B40A077FC04E
:100AA200120C998013AB19AA1AA91B851D82851CE9
:100AB20083120819FF120CAB051DE51D70CC051C35
:030AC20080C822C7
:100C8100120D48120CDE7FD0120BF77F07120BF703
:080C9100E4FF120BF7020CFC5A
:050D4800D2C0D2C1225F
:100A0D008B198A1A891B120CDE7FD0120BF7E4FFAB
:100A1D00120BF7900006120BED900005120BEDABCB
:100A2D0019AA1AA91B900004120BF3AB19AA1AA943
:100A3D001B900002120BF3AB19AA1AA91B9000030D
:100A4D00120BF3AB19AA1AA91B900001120BF3ABF1
:0F0A5D0019AA1AA91B120800FF120BF7020CFCB2
:10099B008B2C8A2D892E120CDE7FD0120BF7E4FFE5
:1009AB00120BF7120CFC120CDE7FD1120BF77F012E
:1009BB00120B69900006120B5D900005120B5DABDC
:1009CB002CAA2DA92E900004120B63AB2CAA2DA9D7
:1009DB002E900002120B63AB2CAA2DA92E900003B4
:1009EB00120B63AB2CAA2DA92E900001EF12085805
:1009FB00E4FF120B69AB2CAA2DA92EEF12084602AD
:020A0B000CFCE1
:0D0B96007F017E00120BA3D2C07F017E0004
:100BA300AB07AA069000007C007D0AAF03AE0212D9
:0F0BB300087AC3E5829FE5839E5003A380E92261
:0F0CDE00C2C0D2C1120B96C2C1120B9FC2C0225C
:0D0CFC00C2C0120B9FC2C1120B96D2C122C2
:0A0BED00AB19AA1AA91B120819FF80
:100BF7008F1CE4F51DE51C3392C1120D3DE51C2544
:0F0C0700E0F51C051DE51DC3940840E9020D3DF5
:0C0B5D00AB2CAA2DA92EEF1208587F0126
:100B69008F2FE4F530D2C1F9120B96E53025E0F567
:100B790030A2C1E4334230C2C009B908EBE52FB451
:0D0B89000105120D158003120D1DAF302265
:060D3D00120B96C2C02259
:080D1500C2C1120D3DD2C12242
:080D1D00D2C1120D3DD2C0222B
:0F0CED0075C83475CBFF75CAF3D2CA75985022FB
:080D25003098FDAF99C298223D
:100AC5008B198A1A891B8C1C8D1DE4FDFCC3ED95C1
:100AD5001DEC951C5036120D258F1EE51E640A600F
:100AE50024E51E6003B40D0EAB19AA1AA91B8D824D
:100AF5008C83E4020858AB19AA1AA91B8D828C8332
:0D0B0500E51E1208580DBD00010C80C12234
:080D2D008F99C2993099FD2253
:100C3D008B198A1A891BE4FDFCAB19AA1AA91B8D05
:100C4D00828C83120819FF600A120D2D0DBD000153
:040C5D000C80E622FF
:100B1200120C61120CED120C81750E02750D03752B
:100B22000C04750B05750A067509077508187B0014
:100B32007A007908120A0D7B007A00790F7D0A7C0F
:100B420000120AC57B007A00790F120C3D120D4388
:0B0B52007B007A00790F120A7280DC31
:100BC200AB26AA27A928120819FF7B007A007929E7
:100BD200EFC4540F2430120846EF540F2430900013
:0B0BE20001120858900002E4020858BD
:100917008B268A278928120D43900004120BC212D6
:100927000A72120A6C900005120BC2120A72120A9E
:100937006CAB26AA27A928900006120BC8120A72C8
:100947007BFF7A0D7937120A72AB26AA27A928905E
:100957000003120BC8120A72120A6CAB26AA27A947
:1009670028900001120BC8120A72120A6CAB26AA51
:1009770027A928120800120BCB120A727BFF7A0DE7
:100987007939120A72AB26AA27A928900002120BFE
:04099700C8020A7216
:03000000020D09E5
:0C0D0900787FE4F6D8FD758130020B12F3
:10080000BB010689828A83E0225002E722BBFE02F6
:09081000E32289828A83E4932229
:10081900BB010CE58229F582E5833AF583E0225094
:1008290006E92582F8E622BBFE06E92582F8E222DE
:0D083900E58229F582E5833AF583E49322F8
:10084600BB010689828A83F0225002F722BBFE0191
:02085600F3228B
:10085800F8BB010DE58229F582E5833AF583E8F0D6
:10086800225006E92582C8F622BBFE05E92582C882
:02087800F2226A
:10087A00EF8DF0A4A8F0CF8CF0A428CE8DF0A42E92
:02088A00FE224C
:00000001FF
