:100B88004573636F6C686120646520646174610AF1
:100B9800003A2000486F7261004D696E75746F00ED
:100BA800736567756E646F00446961004D65730015
:100BB800416E6F004469612073656D616E61002844
:100BC800302D3132682F312D32346829003A000A2D
:050BD80000202D2000AB
:070D5300120DFB7F0A7E0078
:100D5A00E4FDFCC3ED9FEC9E5015E4FBFA0BBB00CF
:100D6A00010ABA04F8BBFBF50DBD00010C80E422B0
:100DFB008F80C2A5C2A6D2A77F017E00120D5AC258
:020E0B00A7221C
:100E0D008F80D2A5C2A6D2A77F017E00120D5AC235
:020E1D00A7220A
:100DC3007F38120D537F0F120D537F01120D537F86
:100DD30081120D537F80120DFB7F0A7E00020D5A94
:050E88007F01020DFBDB
:060AD7007BFF7A0B79D5CC
:100ADD008B198A1A891BE4F51CF51D1208C9B40D72
:100AED0009120E88751C00751D01AB19AA1AA91BD8
:100AFD00851D82851C831208E26027B40A077FC01A
:100B0D00120DFB8013AB19AA1AA91B851D82851C1A
:100B1D00831208E2FF120E0D051DE51D70CC051C9C
:030B2D0080C8225B
:100DE300120E8D120E1F7FD0120D347F07120D3499
:080DF300E4FF120D34020E3D75
:050E8D00D2C0D2C12219
:100A78008B288A29892A120E1F7FD0120D34E4FF91
:100A8800120D34900006120D2A900005120D2AABA3
:100A980028AA29A92A900004120D30AB28AA29A94E
:100AA8002A900002120D30AB28AA29A92A90000327
:100AB800120D30AB28AA29A92A900001120D30ABDB
:0F0AC80028AA29A92A1208C9FF120D34020E3DCF
:100A06008B2B8A2C892D120E1F7FD0120D34E4FFFA
:100A1600120D34120E3D120E1F7FD1120D347F01BE
:100A2600120C72900006120C66900005120C66AB52
:100A36002BAA2CA92D900004120C6CAB2BAA2CA966
:100A46002D900002120C6CAB2BAA2CA92D90000342
:100A5600120C6CAB2BAA2CA92D900001EF120921C8
:100A6600E4FF120C72AB2BAA2CA92DEF12090F0270
:020A76000E3D33
:0D0CD3007F017E00120CE0D2C07F017E0088
:100CE000AB07AA069000007C007D0AAF03AE02129B
:0F0CF0000943C3E5829FE5839E5003A380E92259
:0F0E1F00C2C0D2C1120CD3C2C1120CDCC2C0229D
:0D0E3D00C2C0120CDCC2C1120CD3D2C12203
:0A0D2A00AB28AA29A92A1208E2FF4B
:100D34008F08E4F509E5083392C1120E82E508250F
:0F0D4400E0F5080509E509C3940840E9020E82AD
:0C0C6600AB2BAA2CA92DEF1209217F0155
:100C72008F2EE4F52FD2C1F9120CD3E52F25E0F522
:100C82002FA2C1E433422FC2C009B908EBE52EB44A
:0D0C92000105120E628003120E6AAF2F22C0
:060E8200120CD3C2C022D5
:080E6200C2C1120E82D2C122AE
:080E6A00D2C1120E82D2C02297
:0F0E2E0075C83475CBFF75CAF3D2CA75985022B8
:080E72003098FDAF99C29822EF
:100D7A00E4FFFE209812C3EF9464EE6480948050DE
:100D8A00070FBF00010E80EBEF64644E7002FF2272
:050D9A00AF99C2982290
:100BDD008B198A1A891B8C1C8D1DE4FDFCC3ED95A8
:100BED001DEC951C5036120E728F1EE51E640A60A8
:100BFD0024E51E6003B40D0EAB19AA1AA91B8D8234
:100C0D008C83E4020921AB19AA1AA91B8D828C834E
:0D0C1D00E51E1209210DBD00010C80C12251
:080E7A008F99C2993099FD2205
:100D9F008B198A1A891BE4FDFCAB19AA1AA91B8DA2
:100DAF00828C831208E2FF600A120E7A0DBD0001D9
:040DBF000C80E6229C
:100CFF00AB0CAA0DA90E1208E2FF7B007A00790F48
:100D0F00EFC4540F243012090FEF540F243090000A
:0B0D1F0001120921900002E4020921EA
:100C9F008B198A1A891BE4F51CFFFEAB19AA1AA936
:100CAF001B8F828E831208E26017E51CC454F0F587
:100CBF001C1208C924D0251CF51C0FBF00010E8083
:040CCF00DAAF1C225A
:100B30008B118A128913120E887BFF7A0B79881227
:100B40000ADDAB11AA12A913120ADD7BFF7A0B7919
:100B500099120ADDAB11AA12A913120D9F7BFF7A1D
:100B60000B7999120D9F7B007A0079147D057C002A
:100B7000120BDD7B007A007914120ADD7B007A000B
:080B80007914120C9F7E002283
:100800008B0C8A0D890E8C0F8D107BFF7A0B7988EB
:10081000120D9F7BFF7A0B799C120B30AB0CAA0D4B
:10082000A90E900004EF1209217BFF7A0B79A11227
:100830000B30AB0CAA0DA90E900005EF1209217B1D
:10084000FF7A0B79A8120B30AB0CAA0DA90E900001
:1008500006EF120921E510450F606D7BFF7A0B79D9
:10086000B0120B30AB0CAA0DA90E900003EF1209C9
:10087000217BFF7A0B79B4120B30AB0CAA0DA90EB9
:10088000900001EF1209217BFF7A0B79B8120B302F
:10089000AB0CAA0DA90EEF12090F7BFF7A0B79BCE6
:1008A000120B30AB0CAA0DA90E900002EF12092119
:1008B0007BFF7A0B79C7120B30AB0CAA0DA90E90F7
:0908C0000007EE8FF01209552229
:100982008B0C8A0D890E120E88900004120CFF1235
:100992000ADD120AD7900005120CFF120ADD120AB4
:1009A200D7AB0CAA0DA90E900006120D05120ADD96
:1009B2007BFF7A0B79D7120ADDAB0CAA0DA90E9038
:1009C2000003120D05120ADD120AD7AB0CAA0DA9FB
:1009D2000E900001120D05120ADD120AD7AB0CAA05
:1009E2000DA90E1208C9120D08120ADD7BFF7A0B3F
:1009F20079D9120ADDAB0CAA0DA90E900002120DD4
:040A020005020ADD02
:0C0E4A00120DC3120E2E120DE3020C2A32
:100C2A0074FFF50AF50B120D7ABF650D7B007A0089
:100C3A00791F7D017C00120800750800852509E5E9
:100C4A0009650B7004E508650A60DB7B007A0079A8
:0C0C5A001F12098285080A85090B80CA58
:03000000020E5697
:0C0E5600787FE4F6D8FD75812F020E4A6B
:1008C900BB010689828A83E0225002E722BBFE022D
:0908D900E32289828A83E4932260
:1008E200BB010CE58229F582E5833AF583E02250CB
:1008F20006E92582F8E622BBFE06E92582F8E22215
:0D090200E58229F582E5833AF583E493222E
:10090F00BB010689828A83F0225002F722BBFE01C7
:02091F00F322C1
:10092100F8BB010DE58229F582E5833AF583E8F00C
:10093100225006E92582C8F622BBFE05E92582C8B8
:02094100F222A0
:10094300EF8DF0A4A8F0CF8CF0A428CE8DF0A42EC8
:02095300FE2282
:10095500F8BB0111E58229F582E5833AF583E8F0D4
:10096500E5F0A3F0225009E92582C8F608A6F02291
:0D097500BBFE09E92582C8F2E5F008F22278
:00000001FF
