:100C2C004573636F6C686120646520646174610A4C
:100C3C00003A2000486F7261004D696E75746F0048
:100C4C00736567756E646F00446961004D65730070
:100C5C00416E6F004469612073656D616E6100289F
:100C6C00302D3132682F312D32346829003A000A88
:100C7C0000202D20000D416C61726D65200A4174BD
:100C8C00697661646F000D416C61726D65200A4478
:100C9C0065736174697661646F004D6F73636F7710
:100CAC0020474D542B3300417475616C00416C61CD
:0D0CBC00726D65212100536F6E656361004C
:07107D001211257F0A7E001D
:10108400E4FDFCC3ED9FEC9E5015E4FBFA0BBB00A2
:10109400010ABA04F8BBFBF50DBD00010C80E42283
:101125008F80C2A5C2A6D2A77F017E00121084C2FD
:02113500A722EF
:101137008F80D2A5C2A6D2A77F017E00121084C2DB
:02114700A722DD
:1010ED007F3812107D7F0F12107D7F0112107D7FD2
:1010FD008112107D7F801211257F0A7E00021084DF
:0511AF007F0102112583
:060E33007BFF7A0C7979C7
:100E39008B588A59895AE4F55BF55C1208F6B40DAA
:100E4900091211AF755B00755C01AB58AA59A95A13
:100E5900855C82855B8312090F6027B40A077FC00E
:100E69001211258013AB58AA59A95A855C82855B52
:100E79008312090FFF121137055CE55C70CC055B25
:030E890080C822FC
:100F3800E52F653A60028038E52E65396002803019
:100F4800E52D653860028028E540453F7004FE7F46
:100F58000122E52C653760028016E52B65366002B4
:100F6800800EE52A653560028006E529653460044F
:090F7800E4FEFF227E007F01224D
:10110D001211B41211497FD01210017F0712100174
:08111D00E4FF1210010211674A
:0511B400D2C0D2C122EF
:100DD4008B6F8A7089711211497FD0121001E4FF60
:100DE400121001900006120FF7900005120FF7ABD6
:100DF4006FAA70A971900004120FFDAB6FAA70A9BD
:100E040071900002120FFDAB6FAA70A971900003DC
:100E1400120FFDAB6FAA70A971900001120FFDAB08
:0F0E24006FAA70A9711208F6FF12100102116770
:060D5C007B007A00791310
:100D62008B728A7389741211497FD0121001E4FFC9
:100D72001210011211671211497FD11210017F0165
:100D8200120F8D900006120F81900005120F81AB99
:100D920072AA73A974900004120F87AB72AA73A986
:100DA20074900002120F87AB72AA73A974900003A9
:100DB200120F87AB72AA73A974900001EF12094E49
:100DC200E4FF120F8DAB72AA73A974EF12093C02F1
:020DD2001167A7
:0D1026007F017E00121033D2C07F017E00DA
:10103300AB07AA069000007C007D0AAF03AE021244
:0F1043000970C3E5829FE5839E5003A380E922D5
:0F114900C2C0D2C1121026C2C112102FC2C022C2
:0D116700C2C012102FC2C1121026D2C12228
:0A0FF700AB6FAA70A97112090FFF79
:101001008F7AE4F57BC3E57B940874809480501259
:10101100E57A3392C11211A9E57A25E0F57A057BCB
:0510210080E30211A9AB
:0C0F8100AB72AA73A974EF12094E7F0135
:100F8D008F78E4F579D2C1F9E9C39408748094801F
:100F9D005014121026E57925E0F579A2C1E433420B
:100FAD0079C2C00980E2E57864017005121189806B
:070FBD0003121191AF79222C
:0611A900121026C2C02254
:08118900C2C11211A9D2C1225A
:08119100D2C11211A9D2C02243
:0F11580075C83475CBFF75CAF3D2CA759850228B
:081199003098FDAF99C29822C5
:1010A400E4FFFE209812C3EF940AEE64809480500B
:1010B400070FBF00010E80EBEF640A4E7002FF229F
:0510C400AF99C2982263
:100EE4008B528A5389548C558D56E4FDFCC3ED9581
:100EF40056EC9555503D1211998F57E557640A6089
:100F04002BE557600A3395E0FEEF640D4E700EAB8F
:100F140052AA53A9548D828C83E402094EAB52AA7F
:100F240053A9548D828C83E55712094E0DBD0001DF
:040F34000C80BA2251
:0811A1008F99C2993099FD22DB
:1010C9008B758A768977E4FDFCAB75AA76A9778D4D
:1010D900828C8312090FFF600A1211A10DBD000154
:0410E9000C80E6226F
:10105200AB41AA42A94312090FFF7B007A007947EC
:10106200EFC4540F243012093CEF540F2430900087
:0B1072000112094E900002E402094E3A
:100FC4008B678A688969E4F56AFFFEAB67AA68A93A
:100FD400698F828E8312090FFD6015E56AC454F08F
:100FE400F56AED24D0256AF56A0FBF00010E80DB97
:030FF400AF6A22BF
:100E8C008B4A8A4B894C1211AF7BFF7A0C792C124E
:100E9C000E39AB4AAA4BA94C120E397BFF7A0C794E
:100EAC003D120E39AB4AAA4BA94C1210C97BFF7AE2
:100EBC000C793D1210C97B007A00794D7D057C00C0
:100ECC00120EE47B007A00794D120E397B007A0009
:080EDC00794D120FC47E0022C3
:100A9A008B5D8A5E895F8C608D617BFF7A0C792C15
:100AAA001210C97BFF7A0C7940120E8CAB5DAA5EDC
:100ABA00A95F900004EF12094E7BFF7A0C79451268
:100ACA000E8CAB5DAA5EA95F900005EF12094E7B02
:100ADA00FF7A0C794C120E8CAB5DAA5EA95F90006E
:100AEA0006EF12094EE5614560606D7BFF7A0C796D
:100AFA0054120E8CAB5DAA5EA95F900003EF120937
:100B0A004E7BFF7A0C7958120E8CAB5DAA5EA95FF8
:100B1A00900001EF12094E7BFF7A0C795C120E8C61
:100B2A00AB5DAA5EA95FEF12093C7BFF7A0C796084
:100B3A00120E8CAB5DAA5EA95F900002EF12094EFD
:100B4A007BFF7A0C796B120E8CAB5DAA5EA95F9063
:090B5A000007EE8FF0120982225F
:060CC9007B007A007913A4
:100CCF008B418A4289431211AF90000412105212C5
:100CDF000E39120E33900005121052120E39120EE9
:100CEF0033AB41AA42A943900006121058120E3995
:100CFF00AB44AA45A946120E397BFF7A0C797B12B9
:100D0F000E39AB41AA42A943900003121058120E9C
:100D1F0039120E33AB41AA42A94390000112105869
:100D2F00120E39120E33AB41AA42A9431208F61222
:100D3F00105B120E397BFF7A0C797D120E39AB41A5
:0D0D4F00AA42A943900002121058020E396A
:091180001210ED12115802110DBC
:1009AF0074FFF564F565120B631210A48F66E5668C
:1009BF00B465167B007A0079137D017C00120A9AC8
:1009CF007B007A007913020A61E566B4630F7B003E
:1009DF007A007908E4FDFC120A9A020A6CE566B403
:1009EF0061117BFF7A0C7981120E39751100751226
:1009FF00018013E566B464177BFF7A0C7992120EAF
:100A0F0039E4F511F5127FE87E03121084804EE56C
:100A1F0066646D70427BFF7A0C79A6120E39E5176A
:100A2F0075F00A842430F522E51775F00A84E5F095
:100A3F002430F522E51875F00A842430F523F523C8
:100A4F00E51975F00A842430F524F5247B007A002B
:100A5F00791E120DD48006E5666471602D120D5C4F
:100A6F00756200851963E56365657004E562656409
:100A7F0070030209B57544FF75450C7546B3120C2A
:0B0A8F00C98562648563650209B52219
:100B6300756D00756E01E512640145116003020C99
:100B73002B78297C00FDFB7A007908FE7F0B120895
:100B8300D078347C007D007B007A0079137E007F6F
:100B93000B1208D0E4F53FF540120F38EF4E700307
:100BA300020C2B120D5C7544FF75450C7546B9128A
:100BB3000CC91210A4A907B971028024E9647370E7
:100BC3003ED294D294F56BF56C120D5C7544FF75AF
:100BD300450C7546C2120CC91210A4A907B97105B8
:100BE300D294D294227F327E00121084056CE56C7D
:100BF3007002056BC3941EE56B6480948040CAE564
:100C03006E6401456D700DC294C294F56DF56E7FEF
:100C130082FE800ED294D294756D00756E017F8230
:090C23007E00121084020BA622CF
:0300000002117476
:0C117400787FE4F6D8FD75817B021180C5
:10080000E709F608DFFA8046E709F208DFFA803EDA
:1008100088828C83E709F0A3DFFA8032E309F608C7
:10082000DFFA8078E309F208DFFA807088828C832F
:10083000E309F0A3DFFA806489828A83E0A3F608E3
:10084000DFFA805889828A83E0A3F208DFFA804CBD
:1008500080D280FA80C680D4806980F28033801094
:1008600080A680EA809A80A880DA80E280CA8033FD
:1008700089828A83ECFAE493A3C8C582C8CCC58375
:10088000CCF0A3C8C582C8CCC583CCDFE9DEE78045
:100890000D89828A83E493A3F608DFF9ECFAA9F0C4
:1008A000EDFB2289828A83ECFAE0A3C8C582C8CC1A
:1008B000C583CCF0A3C8C582C8CCC583CCDFEADE33
:1008C000E880DB89828A83E493A3F208DFF980CC95
:1008D00088F0EF60010E4E60C388F0ED2402B4048E
:1008E0000050B9F582EB2402B4040050AF23234535
:0608F00082239008507302
:1008F600BB010689828A83E0225002E722BBFE0200
:09090600E32289828A83E4932232
:10090F00BB010CE58229F582E5833AF583E022509D
:10091F0006E92582F8E622BBFE06E92582F8E222E7
:0D092F00E58229F582E5833AF583E4932201
:10093C00BB010689828A83F0225002F722BBFE019A
:02094C00F32294
:10094E00F8BB010DE58229F582E5833AF583E8F0DF
:10095E00225006E92582C8F622BBFE05E92582C88B
:02096E00F22273
:10097000EF8DF0A4A8F0CF8CF0A428CE8DF0A42E9B
:02098000FE2255
:10098200F8BB0111E58229F582E5833AF583E8F0A7
:10099200E5F0A3F0225009E92582C8F608A6F02264
:0D09A200BBFE09E92582C8F2E5F008F2224B
:00000001FF
