:0F104B002578003A000A003A323000202D2000AC
:070F2100120FE87F0A7E00B9
:100F2800E4FDFCC3ED9FEC9E5015E4FBFA0BBB00FF
:100F3800010ABA04F8BBFBF50DBD00010C80E422E0
:10101D00E4F509F50A8E0B8F0CE50C450B70FA22E1
:10100C00758900438911758CFF758A9BD2A9D28C86
:01101C0022B1
:03000B00020C994B
:100C9900C0E0C0D075D000C000C006C007C28C0536
:100CA9000EE50E7002050D050AE50A70020509D365
:100CB900E50E94FFE50D648094804006750D00757E
:100CC9000E00AF08EF3395E0FED3E50E9FEE64808A
:100CD900F8E50D6480984004D2948002C294D3E56B
:100CE9000A9414E50964809480401B750900750A0B
:100CF90000D3E50C9400E50B648094804008E50C72
:100D0900150C7002150B758CFF758A9BC28DD28CE0
:0B0D1900D007D006D000D0D0D0E032D0
:100FE8008F80C2A5C2A6D2A77F017E00120F28C299
:020FF800A7222E
:100FFA008F80D2A5C2A6D2A77F017E00120F28C277
:02100A00A7221B
:100FB4007F38120F217F0F120F217F01120F217F23
:0B0FC40081120FE87F0A7E00020F2858
:051099007F80020FE85A
:060DF5007B007A00792C5E
:100DFB008B2F8A308931E4F532F533120B5CB40D4D
:100E0B0009121099753200753301AB2FAA30A93135
:100E1B00853382853283120B75602CB40A047FC034
:100E2B008010AB2FAA30A931853382853283120B08
:100E3B0075FF120FFA0533E533700205320533E502
:080E4B003370C7053280C32299
:100FCF00E4F5A8F5B1758901D2C0D2C17593417509
:090FDF00B20275B30275B10222E1
:100D96008B298A2A892B12102D7FD0120F02E4FF8D
:100DA600120F02900006120EF8900005120EF8AB14
:100DB60029AA2AA92B900004120EFEAB29AA2AA959
:100DC6002B900002120EFEAB29AA2AA92B90000333
:100DD600120EFEAB29AA2AA92B900001120EFEAB19
:0F0DE60029AA2AA92B120B5CFF120F0202105A26
:100D24008B298A2A892B12102D7FD0120F02E4FFFF
:100D3400120F0212105A12102D7FD1120F027F01CE
:100D4400120EA1900006120E95900005120E95AB9E
:100D540029AA2AA92B900004120E9BAB29AA2AA91E
:100D64002B900002120E9BAB29AA2AA92B900003F8
:100D7400120E9BAB29AA2AA92B900001EF120BB4E7
:100D8400E4FF120EA1AB29AA2AA92BEF120BA2028F
:020D9400105AF3
:0D0ECE007F017E00120EDBD2C07F017E008E
:100EDB00AD07AC06E4FBFAED25E0FFEC33FEC3EB0C
:0D0EEB009FEA9E50070BBB00010A80EB221E
:0F102D00C2C0D2C1120ECEC2C1120ED7C2C02293
:0D105A00C2C0120ED7C2C1120ECED2C122EA
:0A0EF800AB29AA2AA92B120B75FFE3
:100F02008F2CE4F52DE52C3392C1121093E52C259C
:0F0F1200E0F52C052DE52DC3940840E90210935E
:0C0E9500AB29AA2AA92BEF120BB47F0195
:100EA1008F2CE4F52DD2C1F9120ECEE52D25E0F5FA
:100EB1002DA2C1E433422DC2C009B908EBE52CB41F
:0D0EC1000105121073800312107BAF2D226B
:06109300120ECEC2C022C5
:08107300C2C1121093D2C12288
:08107B00D2C1121093D2C02271
:0F103C0075C83475CBFF75CAF3D2CA75985022A8
:081083003098FDAF99C29822DC
:08108B008F99C2993099FD22F2
:100F6F008B0F8A108911E4FDFCAB0FAA10A9118D0C
:100F7F00828C83120B75FF600A12108B0DBD00015E
:040F8F000C80E622CA
:100E5300120FB412103C120FCF75280275270375B9
:100E630026047525057524067523077522127B0054
:100E73007A007922120D967B007A007922120C0CEB
:100E83007FD07E07120F287B007A007922120D246F
:020E930080E5F8
:100F9300900003AB29AA2AA92B120B75FF7B007AB9
:030FA30000792CA6
:0E0FA6007532FF75331075344B8F3502085CC1
:100C0C008B298A2A892B121099120F93120DF57BBE
:100C1C00FF7A10794E120DFB900005120F96120DF3
:100C2C00F57BFF7A10794E120DFBAB29AA2AA92B62
:100C3C00900006120F9C120DF57BFF7A1079501262
:100C4C000DFB120F93120DF57BFF7A10794E120DDE
:100C5C00FBAB29AA2AA92B900001120F9C120DF5AF
:100C6C007BFF7A107952120DFB120F93120DF57B4C
:100C7C00FF7A107956120DFBAB29AA2AA92B9000EA
:0D0C8C0002120F9C7B007A00792C020DFBF8
:0300000002106784
:0C106700787FE4F6D8FD758142020E533C
:100B5C00BB010689828A83E0225002E722BBFE0297
:090B6C00E32289828A83E49322CA
:100B7500BB010CE58229F582E5833AF583E0225035
:100B850006E92582F8E622BBFE06E92582F8E2227F
:0D0B9500E58229F582E5833AF583E4932299
:100BA200BB010689828A83F0225002F722BBFE0132
:020BB200F3222C
:100BB400F8BB010DE58229F582E5833AF583E8F077
:100BC400225006E92582C8F622BBFE05E92582C823
:020BD400F2220B
:10080000E53E2432F8E6053E22782F3007027832A2
:10081000E475F001120BD6020B5C2000EB7F2ED2A8
:10082000008018EF540F2490D43440D4FF30040BD0
:10083000EF24BFB41A0050032461FFE53F600215A6
:100840003F0542E5427002054130070D782FE475FF
:10085000F001120BD6EF020BA2020F487403D2076D
:100860008003E4C207F53E8B2F8A308931E4F53FDF
:10087000F541F542E53F60077F2012083B80F575A2
:1008800040FFC201C200C202C203C205C206C208C2
:10089000120809FF700D3007057F0012084CAF42A7
:1008A000AE4122B4255FC2D5C204120809FF24D08C
:1008B000B40A00501A75F00A783F30D50508B6FF23
:1008C0000106C6A426F620D5047002D20380D924DE
:1008D000CFB41A00EF5004C2E5D204020A4CD20190
:1008E00080C6D20080C0D20280BCD2D580BAD205E8
:1008F00080B47F2012083B2002077401B53F0040FE
:10090000F1120800FF12083B020874D208D20680D8
:1009100095120800FB120800FA120800F94A4B7001
:1009200006791D7A0B7BFF20022EE53F602A7E00B0
:100930008E82758300120B7560060EEE654070F0B6
:10094000C2D5EBC0E0EAC0E0E9C0E0EE120A93D005
:10095000E0F9D0E0FAD0E0FB120B5CFF60AAEBC03C
:10096000E0EAC0E0E9C0E012083BD0E02401F9D0A1
:10097000E03400FAD0E0FBE5400460DCD540D980EB
:10098000877BFF7A0A798FD202809C791080027966
:1009900008C206C2088008D2D5790A8004790AC242
:1009A000D5E540047002F540E4FAFDFEFF120800B0
:1009B000FC7B08200113120800FD7B1030000A1296
:1009C0000800FE120800FF7B20EC3382D592D55040
:1009D00013C3E43000069FFFE49EFEE42001039D64
:1009E000FDE49CFCE4CBF8C201EC700CCFCECDCC86
:1009F000E824F8F870F38017C3EF33FFEE33FEED11
:100A000033FDEC33FCEB33FB994002FB0FD8E9EBF1
:100A1000300105F8D0E0C448B201C0E00AEC4D4E08
:100A20004F78207B0070C2EAB5400040BCC0E012A5
:100A30000A95D0F0D0E0200104C4C0E0C4B201C0E7
:100A4000F0120824D0F0D5F0EB020874120BE6097E
:100A50001153098B5808E24C08DE42098F4F099761
:0F0A60004409974908F743099D550981460981C3
:100A6F00450981470B3D5008E62D08EA2E090D2B4D
:100A7F0008EE23090B200B262A08A64800000905BB
:100A8F003F3F3F00790AA2D5200314300509B91062
:100A9F00020404B9080104A2D52006025001042063
:100AAF0002689202B53F005034C0E07F2030031936
:100ABF007F30A20272067205500F120AECC202C2F8
:100ACF0006C205C2087F30800F300503E9C0E0126F
:100ADF00083B300503D0E0F9D0E0B53FCC30051727
:100AEF007F30B9100C12083B7F583004077F788095
:100AFF0003B9080312083B3002057F2D02083B7F24
:100B0F00202008F87F2B2006F322920280CF286E38
:100B1F00756C6C2900D2011208003001F8C20178FF
:100B2F003F30D50108F60208A62D50434958120848
:100B3F00002403B405004001E4900B389312082CF5
:0D0B4F00743A12082CD203753F0402098B82
:100BD600FAE6FB0808E6F925F0F618E6CA3AF62220
:100BE600D083D082F8E4937012740193700DA3A39E
:100BF60093F8740193F5828883E4737402936860B2
:060C0600EFA3A3A380DFB1
:100F4800EFB40A07740D120F53740A309811A89958
:100F5800B8130CC2983098FDA899C298B811F63009
:070F680099FDC299F59922E1
:00000001FF
