:10098D00010800011800011900011A000F09564550
:0D099D004C4F4349444144453A00000000DE
:0A0A1E00E4F580F590F5A0F5B02294
:1009DD00758900438911E4F58CF58AD2A9D2AFD27D
:0209ED008C225A
:0A0A2800E4F58DF58BD2ABD28E22DF
:0B0A1300E4F508F5181209DD020A28BE
:03000B0002088C5C
:10088C00C0E0C0D075D000C007C28C309610C296A4
:10089C00C374FF9508F52CE49400F52B800AD296CE
:1008AC00752B0085082CE52BFFC374FF9FF58CC3BB
:1008BC0074FF952CF58AC28DD28CD007D0D0D0E0A5
:0108CC0032F9
:03001B000208CD0B
:1008CD00C0E0C0D075D000C007C28E309710C2975F
:1008DD00C374FF9518F52EE49400F52D800AD29778
:1008ED00752D0085182EE52DFFC374FF9FF58DC363
:1008FD0074FF952EF58BC28FD28ED007D0D0D0E05D
:01090D0032B7
:070966001209EF7F0A7E0079
:10096D00E4FDFCC3ED9FEC9E5015E4FBFA0BBB00C0
:10097D00010ABA04F8BBFBF50DBD00010C80E422A1
:1009EF008F80C2A5C2A6D2A77F017E0012096DC259
:0209FF00A7222D
:100A01008F80D2A5C2A6D2A77F017E0012096DC236
:020A1100A7221A
:1009AB007F381209667F0F1209667F011209667F75
:0B09BB00811209EF7F0A7E0002096D27
:010A3A002299
:1009C60075CBF675CA3CD2CAC2CCD2CD759850E466
:0709D600F587C298C29922C7
:080A32003098FDAF99C2982233
:10093B008B2F8A3089311209AB7F801209EFE4F5D6
:10094B0032AB2FAA30A93185328275830012090E82
:0B095B00FF6007120A01053280E7224E
:03000000020800F3
:0C080000787FE4F6D8FD758132020847CD
:10090E00BB010CE58229F582E5833AF583E022509E
:10091E0006E92582F8E622BBFE06E92582F8E222E8
:0D092E00E58229F582E5833AF583E4932202
:10080C00020A3AE493A3F8E493A34003F68001F2BE
:10081C0008DFF48029E493A3F85407240CC8C333ED
:10082C00C4540F4420C8834004F456800146F6DFBC
:10083C00E4800B010204081020408090098DE47EB6
:10084C00019360BCA3FF543F30E509541FFEE493B1
:10085C00A360010ECF54C025E060A840B8E493A378
:10086C00FAE493A3F8E493A3C8C582C8CAC583CAA3
:10087C00F0A3C8C582C8CAC583CADFE9DEE780BE5B
:0109AA00004C
:00000001FF
