:0320000002207B40
:032043000221383F
:10207B0075A80075B100758901D2C0D2C1759342A4
:10208B00C2A17540641220E57542301221057540DE
:10209B000A1220E51221051221057542381221057D
:1020AB0075420E1221057542021221057542061268
:1020BB0021051220F875B10275A880755000755175
:1020CB000074502406F55274302402F55374102416
:1020DB0009F55412212580FE8096758CFC758A17A4
:1020EB00D28C308DFDC28CC28DD540EE2275420153
:1020FB001221057540031220E5227540011220E5DF
:10210B00C2A0D2A1854290C2A1227540011220E546
:10211B00D2A0D2A1854190C2A122756850756606E6
:10212B00756701756900E5935440F59322B2B6E5E6
:10213B0094031221C10221D6000221DF000221EB00
:10214B00000221F7000222030002220E00022239B4
:10215B0000022244000222470002224700022252C0
:10216B0000022252000221C0000221C0000221C045
:10217B00000221C0000221C0000221C0000221C0C8
:10218B00000221C0000221C0000221C0000221C0B8
:10219B00000221C0000221C0000221C0000221C0A8
:1021AB00000221C0000221C0000221C0000221C098
:1021BB00000221C00032D083D0823582F5825006D6
:1021CB0074012583F583C082C08322E5935410F5F7
:1021DB00930221C07595A2E59354E7F5930221C0B4
:1021EB007595A3E59354E7F5930221C0856895E5B2
:1021FB009354A7F5930221C0E59354B74410F5937C
:10220B000221C0D56619D5670BE59354B74410F579
:10221B00930221C0E59354E74440F5930221C0A8F3
:10222B00698695E59354A7F59305690221C0E5935B
:10223B0054B74410F5930221C00221C0E59354B763
:10224B004410F5930221C0E59354B74410F5930263
:02225B0021C0A0
:00000001FF
