:100978004652454E54450054524153004652454E46
:1009880054452D4553515545524441004652454E14
:1009980054452D4449524549544100545241532D20
:1009A800455351554552444100545241532D4449F1
:1009B8005245495441004143454C4552414E444FEC
:1009C80000524544555A494E444F00524F544143F2
:1009D800494F4E412D484F524100524F54414349CF
:1009E8004F4E412D414E5449005041524121212141
:0109F80000FE
:100BD1000121000131000132000133000F2256458D
:100BE1004C4F4349444144453A00000000C100C113
:010BF1000102
:0A0CE500E4F580F590F5A0F5B022CB
:100C1D00758900438911E4F58CF58AD2A9D2AFD23A
:020C2D008C2217
:0A0CEF00E4F58DF58BD2ABD28E2216
:0B0CDA00E4F521F531120C1D020CEFB7
:03000B00020A7076
:100A7000C0E0C0D075D000C007C28C309610C296BE
:100A8000C374FF9521F546E49400F545800AD2969B
:100A9000754500852146E545FFC374FF9FF58CC36E
:100AA00074FF9546F58AC28DD28CD007D0D0D0E0A5
:010AB0003213
:03001B00020AB125
:100AB100C0E0C0D075D000C007C28E309710C29779
:100AC100C374FF9531F548E49400F547800AD29745
:100AD100754700853148E547FFC374FF9FF58DC316
:100AE10074FF9548F58BC28FD28ED007D0D0D0E05D
:010AF10032D2
:100C2F00E521C394E15007741E2521F5212275217A
:020C3F00FF2292
:100C4100E531C394E15007741E2531F53122753128
:020C5100FF2280
:100C5300E521D3941E400774E22521F52122E4F512
:020C630021224C
:100C6500E531D3941E400774E22531F53122E4F5D0
:020C750031222A
:0E0B5300E4F521F531120D3C120D417F0AFE32
:100B6100E4FDFCC3ED9FEC9E5015E4FBFA0BBB00CA
:100B7100010ABA04F8BBFBF50DBD00010C80E422AB
:100C77008F80C2A5C2A6D2A77F017E00120B61C2D8
:020C8700A722A2
:100BAE00E9850FF08485F010E9850FF084F9243083
:010BBE00FF37
:100BBF008F80D2A5C2A6D2A77F017E00120B61C281
:020BCF00A7225B
:100B23007F38120C777F0A7E00120B617F0F120C45
:100B3300777F0A7E00120B617F01120C777F0A7E9A
:100B430000120B617F81120C777F0A7E00020B611A
:10080000120BF3120CDAE4F521F531120D178F43B8
:10081000E543B425F6120D178F43E543B423EC12DC
:100820000D178F43E544654360E1854344E543B4D8
:10083000770C120CBD7BFF7A0979780208E1E54359
:10084000B4730C120D0D7BFF7A09797F0208E1E584
:1008500043B4710C120CAD7BFF7A0979840208E174
:10086000E543B4650B120C0A7BFF7A097994807119
:10087000E543B47A0B120CF97BFF7A0979A3806106
:10088000E543B4630B120D037BFF7A0979B1805104
:10089000E543B4670B120D1F7BFF7A0979BE8041D7
:1008A000E543B4680B120D257BFF7A0979C98031C5
:1008B000E543B4610B120D2B7BFF7A0979D38021BC
:1008C000E543B4640B120D317BFF7A0979E28011A4
:1008D000E543B47011120C89120C9B7BFF7A0979E5
:0C08E000F1AD43120AF275442A02080B25
:100BF30075CBF675CA3CD2CAC2CCD2CD759850E437
:070C0300F587C298C2992297
:080D17003098FDAF99C298224B
:050D3700C2A2D2A322BC
:080CCD00E4F521F531120D37A9
:050CD500C2A1D2A4221F
:050D3C00D2A2C2A322B7
:050D4100D2A1C2A422B2
:100CAD00120CCD7F0AFE120B617521647531B422D1
:100C0A00E4F531120CD07F0AFE120B617521B4751E
:030C1A0031642220
:0A0CF900120B537521647531B4220B
:0A0D0300120B537521B47531642200
:100C89007521B4D2A2D2A37F0A7E00120B61E4F5CA
:020C9900212216
:100C9B007531B4D2A1D2A47F0A7E00120B61E4F5A8
:020CAB003122F4
:100CBD00120CCD7F0AFE120B617521B47531B42271
:0A0D0D00120B537521B47531B422A6
:060D1F00120C2F020C4132
:060D2500120C53020C65E4
:060D2B00120C53020C4102
:060D3100120C2F020C65FC
:100AF2008B088A09890A8D0B120B237F80120C77CF
:100B0200E4F50CAB08AA09A90A850C8275830012C8
:100B12000B81FF6007120BBF050C80E7AF0B0209C8
:010B2200F9D9
:1009F900750F64EF6477600DEF64736008EF6467E7
:100A09006003BF6804A921802FEF64616008EF6467
:100A1900716003BF7A08C3E5319521F9801AEF6443
:100A2900656008EF64646003BF6308C3E52195311D
:100A3900F98005BF7002E4F97FC0120C77E4F50E66
:100A49007422250EF8E6FF120BBF050EE50EC394BE
:100A59000B40ED120BAE750F0AA910120BAEA910BF
:070A6900E92430FF020BBF7E
:030000000208EC07
:0C08EC00787FE4F6D8FD758149020933DD
:100B8100BB010CE58229F582E5833AF583E0225029
:100B910006E92582F8E622BBFE06E92582F8E22273
:0D0BA100E58229F582E5833AF583E493228D
:1008F800020800E493A3F8E493A34003F68001F20E
:1009080008DFF48029E493A3F85407240CC8C33300
:10091800C4540F4420C8834004F456800146F6DFCF
:10092800E4800B0102040810204080900BD1E47E83
:10093800019360BCA3FF543F30E509541FFEE493C4
:10094800A360010ECF54C025E060A840B8E493A38B
:10095800FAE493A3F8E493A3C8C582C8CAC583CAB6
:10096800F0A3C8C582C8CAC583CADFE9DEE780BE6E
:010BF2000002
:00000001FF
