:0200000080314D
:100033001139117780FE758038116AB141758038A6
:10004300116AB141758006116AB14175800E116A5A
:10005300B141758001116AB14122C2A7C2A6D2A5DE
:10006300D2A7B138C2A722C2A7C2A6C2A5D2A7B13E
:1000730038C2A722900500E493B40002800AF580F9
:09008300115DB141A3B400EF22AC
:1005000055544650522032303138202020202020AF
:1005100020202020202020202020202020202020DB
:1005200020202020202020204741425249454C20B5
:100530004755535441564F00780F790FD9FED8FADA
:0A0540002278FF79FFD9FED8FA22D5
:00000001FF
