:0200000080314D
:03000B00114A3265
:10003300D2A9758901758CFF758AFFD2AFD28CD294
:1000430014C2B77D0080FEED04FDB420047D008062
:10005300012220140122F52F882EE522540FB4002B
:100063000AD2A0C2A1C2A2C2A3805FD2B6B4010ABF
:10007300D2A0D2A1C2A2C2A38050B4020AC2A0D20B
:10008300A1C2A2C2A38043B4030AC2A0D2A1D2A236
:10009300C2A38036C2B6B4040AC2A0C2A1D2A2C20D
:1000A300A38027B4050AC2A0C2A1D2A2D2A3801AF8
:1000B300B4060AC2A0C2A1D2A2C2A3800DB4070A89
:1000C300D2A0C2A1C2A2D2A3800020150314800330
:1000D300048000F8E52255F048F522E52FA82E22EA
:00000001FF
