:0309EC004F690050
:08095C00D2B5D2B47F017E0088
:10096400E4FDFCC3ED9FEC9E5015E4FBFA0BBB00C9
:10097400010ABA04F8BBFBF50DBD00010C80E422AA
:0E09B8008F80C2A5C2A6D2A7120960C2A722D4
:0E09C6008F80D2A5C2A6D2A7120960C2A722B6
:1008FF007F381209B87F0A7E001209647F0F120930
:10090F00B87F0A7E001209647F011209B87F0A7E40
:10091F00001209647F811209B87F0A7E0002096400
:1008BB008B098A0A890B1208FF7F801209B8E4F5AD
:1008CB000CAB09AA0AA90B850C8275830012092FA0
:1008DB006021B40A077FC01209B88013AB09AA0ABA
:1008EB00A90B850C8275830012092FFF1209C6050F
:0408FB000C80CE227D
:100984001209A9D2AF7BFF7A0979EC1208BB1208CD
:10099400008F08EF60F81209C67F611209D47F3115
:0509A4001209D480E9F6
:0F09A90075C83475CBFF75CAF3D2CA7598502242
:0C09D4008F99C299C2B73099FDD2B722AA
:10080000D2A0D2B7D2B6C2A1D2B312095C20A0093D
:1008100012096430A0FD7F232220B709120960303D
:10082000B7FD7F302220B60912096030B6FD7F2A5D
:1008300022D2A1C2B312095C20A00912096430A01F
:10084000FD7F332220B70912096030B7FD7F3222C5
:1008500020B60912096030B6FD7F3122D2A1D2B391
:10086000C2B512095E20A00912096430A0FD7F36CE
:100870002220B70912096030B7FD7F352220B60962
:1008800012096030B6FD7F3422D2A1D2B3D2B5C2F4
:10089000B412096020A00912096430A0FD7F39223A
:1008A00020B70912096030B7FD7F382220B609123F
:0B08B000096030B6FD7F37227F002278
:030000000209E012
:0C09E000787FE4F6D8FD75810C020984D4
:10092F00BB010CE58229F582E5833AF583E022507D
:10093F0006E92582F8E622BBFE06E92582F8E222C7
:0D094F00E58229F582E5833AF583E49322E1
:00000001FF
