:04095A007F647E0038
:10095E00E4FDFCC3ED9FEC9E5015E4FBFA0BBB00CF
:10096E00010ABA04F8BBFBF50DBD00010C80E422B0
:10099A008F80C2A5C2A6D2A77F017E0012095EC2BD
:0209AA00A72282
:1009AC008F80D2A5C2A6D2A77F017E0012095EC29B
:0209BC00A72270
:1008FD007F3812099A7F0A7E0012095E7F0F120956
:10090D009A7F0A7E0012095E7F0112099A7F0A7E84
:10091D000012095E7F8112099A7F0A7E0002095E2C
:1008B9008B088A09890A1208FD7F8012099AE4F5D2
:1008C9000BAB08AA09A90A850B8275830012092DA9
:1008D9006021B40A077FC012099A8013AB08AA09DC
:1008E900A90A850B8275830012092DFF1209AC052F
:0408F9000B80CE2280
:10097E001209BED2AF1208008F0CEF60F81209AC4C
:0C098E007F611209CD7F311209CD80E994
:0F09BE0075C83475CBFF75CAF3D2CA759850222D
:0C09CD008F99C299C2B73099FDD2B722B1
:10080000D2A0D2B7D2B6C2A1D2B3D2B5D2B420A0B0
:100810000912095A30A0FD7F232220B70912095A74
:1008200030B7FD7F302220B60912095A30B6FD7F5D
:100830002A22D2A1C2B3D2B5D2B420A00912095A39
:1008400030A0FD7F332220B70912095A30B7FD7F4F
:10085000322220B60912095A30B6FD7F3122D2A1C8
:10086000D2B3C2B5D2B420A00912095A30A0FD7F7C
:10087000362220B70912095A30B7FD7F352220B63B
:100880000912095A30B6FD7F3422D2A1D2B3D2B5B3
:10089000C2B420A00912095A30A0FD7F392220B726
:1008A0000912095A30B7FD7F382220B60912095AB9
:0908B00030B6FD7F37227F0022E3
:030000000209D919
:0C09D900787FE4F6D8FD75810C02097EE1
:10092D00BB010CE58229F582E5833AF583E022507F
:10093D0006E92582F8E622BBFE06E92582F8E222C9
:0D094D00E58229F582E5833AF583E49322E3
:00000001FF
