:100BA10053656C65637420667265713A0A20312061
:100BB100487A004672657175656E6369613A0A002B
:100BC1000D20487A004672657175656E6369613AF8
:100BD10020000D20487A0A000D526F64616E646F27
:010BE1000013
:050CDC00010CC0C10085
:080C1200D2B5D2B47F017E00CF
:100C1A00E4FDFCC3ED9FEC9E5015E4FBFA0BBB0010
:100C2A00010ABA04F8BBFBF50DBD00010C80E422F1
:100C9900E4F50AF50B8E0D8F0EE50E450D70FA225F
:100C8800758900438911758CFF758A9BD2A9D28C0E
:010C98002239
:03000B00020AC81E
:100AC800C0E0C0D075D000C000C006C007C28C0509
:100AD80010E5107002050F050BE50B7002050AD32F
:100AE800E51094FFE50F648094804006750F00754B
:100AF8001000AF09EF3395E0FED3E5109FEE648058
:100B0800F8E50F6480984004D2948002C294D3E53B
:100B18000B9414E50A64809480401B750A00750BD9
:100B280000D3E50E9400E50D648094804008E50E3E
:100B3800150E7002150D758CFF758A9BC28DD28CAF
:0B0B4800D007D006D000D0D0D0E032A3
:0E0CB8008F80C2A5C2A6D2A7120C16C2A72218
:0E0CC6008F80D2A5C2A6D2A7120C16C2A722FA
:100BE2007F38120CB87F0A7E00120C1A7F0F120C8B
:100BF200B87F0A7E00120C1A7F01120CB87F0A7E9F
:100C020000120C1A7F81120CB87F0A7E00020C1AA5
:100B53008B168A178918751901120800640D600B2A
:100B6300120BE27F80120CB8E4F519AB16AA17A991
:100B7300188519827583001208196021B40A077F4A
:100B8300C0120CB88013AB16AA17A9188519827561
:0E0B93008300120819FF120CC6051980CE222D
:10098C00751200751301120BE2120CA9120C70D225
:10099C00AFD2947BFF7A0B79A1120B531208D18F33
:1009AC0011E511C39431402BE511D3943950247BBC
:1009BC00FF7A0B79B4120B53AF11120CC67BFF7A72
:1009CC000B79C1120B53E51124D0F513E434FFF568
:1009DC001280C9E511B42AC47BFF7A0B79C6120BBD
:1009EC0053E5132430FF120CC67BFF7A0B79D3121C
:1009FC000B537BFF7A0B79D9120B53120C88AC1268
:100A0C00AD137E037FE81208468E148F151208D1A1
:100A1C00BF2A08D2941208D1BF2AFAC2A9120C56C6
:100A2C008F11120CD4D2A9AF15AE14120C9980DD13
:100C700043C31043C38243C32053C3F753C3FB434F
:080C8000B10443C340D29122EC
:03004B00020C3A6A
:100C3A00C0E0C0D075D000C007AFC4EF24807005F3
:0C0C4A0085C508D200D007D0D0D0E03221
:100C5600850CC5C2913000FDC200E4F5C53000FD2B
:0A0C6600D291C200850809AF0922EF
:0F0CA90075C83475CBFF75CAF3D2CA759850223F
:080CD4008F99C2993099FD22AD
:1008D100D2A0D2B7D2B6C2A1D2B3120C1220A009B3
:1008E100120C1A30A0FD7F232220B709120C1630FA
:1008F100B7FD7F302220B609120C1630B6FD7F2AD3
:1009010022D2A1C2B3120C1220A009120C1A30A0DB
:10091100FD7F332220B709120C1630B7FD7F32223A
:1009210020B609120C1630B6FD7F3122D2A1D2B306
:10093100C2B5120C1420A009120C1A30A0FD7F368A
:100941002220B709120C1630B7FD7F352220B609D7
:10095100120C1630B6FD7F3422D2A1D2B3D2B5C269
:10096100B4120C1620A009120C1A30A0FD7F3922F6
:1009710020B709120C1630B7FD7F382220B60912B4
:0B0981000C1630B6FD7F37227F0022ED
:03000000020A3CB5
:0C0A3C00787FE4F6D8FD758120020A8363
:10080000BB010689828A83E0225002E722BBFE02F6
:09081000E32289828A83E4932229
:10081900BB010CE58229F582E5833AF583E0225094
:1008290006E92582F8E622BBFE06E92582F8E222DE
:0D083900E58229F582E5833AF583E49322F8
:10084600C2D5EC30E709B2D5E4C39DFDE49CFCEECD
:1008560030E715B2D5E4C39FFFE49EFE12087CC3C1
:10086600E49DFDE49CFC800312087C30D507C3E4BC
:060876009FFFE49EFE223C
:100A480002098CE493A3F8E493A34003F68001F22F
:100A580008DFF48029E493A3F85407240CC8C333AF
:100A6800C4540F4420C8834004F456800146F6DF7E
:100A7800E4800B0102040810204080900CDCE47E26
:100A8800019360BCA3FF543F30E509541FFEE49373
:100A9800A360010ECF54C025E060A840B8E493A33A
:100AA800FAE493A3F8E493A3C8C582C8CAC583CA65
:100AB800F0A3C8C582C8CAC583CADFE9DEE780BE1D
:010CE1000012
:10087C00BC000BBE0029EF8DF084FFADF022E4CC60
:10088C00F875F008EF2FFFEE33FEEC33FCEE9DEC29
:10089C00984005FCEE9DFE0FD5F0E9E4CEFD22ED6F
:1008AC00F8F5F0EE8420D21CFEADF075F008EF2FB9
:1008BC00FFED33FD4007985006D5F0F222C398FDAA
:0508CC000FD5F0EA2247
:00000001FF
