:1008C200383030302121006A6F616F6461736E6568
:0C08D2007665733E0A7261676E61720009
:07089B001209107F0A7E0024
:1008A200E4FDFCC3ED9FEC9E5015E4FBFA0BBB008C
:1008B200010ABA04F8BBFBF50DBD00010C80E4226D
:100910008F80C2A5C2A6D2A77F017E001208A2C204
:02092000A7220C
:100922008F80D2A5C2A6D2A77F017E001208A2C2E2
:02093200A722FA
:1008DE007F3812089B7F0F12089B7F0112089B7FA7
:0B08EE00811209107F0A7E000208A2A0
:100800008B088A09890A1208DE7F80120910E4F534
:100810000BAB08AA09A90A850B827583001208444C
:100820006021B40A077FC01209108013AB08AA091F
:10083000A90A850B82758300120844FF120922055C
:040840000B80CE2239
:100871001208F97BFF7A0879C21208007FD07E073F
:100881001208A27BFF7A0879C91208007FD07E077F
:0A0891001208A27F2912094080D945
:1008F90075CBF675CA3CD2CAC2CCD2CD759850E434
:07090900F587C298C2992294
:080940008F99C2993099FD2244
:03000000020934BE
:0C093400787FE4F6D8FD75810B02087195
:10084400BB010CE58229F582E5833AF583E0225069
:1008540006E92582F8E622BBFE06E92582F8E222B3
:0D086400E58229F582E5833AF583E49322CD
:00000001FF
