:100A780053656C65637420667265713A00467265E9
:100A88007175656E6369613A0032487A00526F6425
:050A9800616E646F00B7
:050B2400010FC0C1003B
:080A5000D2B5D2B47F017E0093
:100A5800E4FDFCC3ED9FEC9E5015E4FBFA0BBB00D4
:100A6800010ABA04F8BBFBF50DBD00010C80E422B5
:0E0AFC008F80C2A5C2A6D2A7120A54C2A7229A
:0E0B0A008F80D2A5C2A6D2A7120A54C2A7227B
:1009F3007F38120AFC7F0A7E00120A587F0F120A00
:100A0300FC7F0A7E00120A587F01120AFC7F0A7ECD
:100A130000120A587F81120AFC7F0A7E00020A58DC
:0B09A4007F01120AFC7BFF7A0A7985B4
:1009AF008B098A0A890B1209F37F80120AFCE4F57E
:1009BF000CAB09AA0AA90B850C82758300120A23B6
:1009CF006021B40A077FC0120AFC8013AB09AA0A80
:1009DF00A90B850C82758300120A23FF120B0A05DF
:0409EF000C80CE2288
:10094700120AED120AB9D2AF7BFF7A0A7978120937
:10095700AF7FC0120AFC1208008F08E508B4310205
:100967008005E508B432131209A47FC0120AFC7B84
:10097700FF7A0A79911209AF80DCE508B42AD71209
:1009870009A47FC0120AFC7BFF7A0A79951209AF86
:0D099700120AD38F08120B18120A5480F3B5
:100AB90043C31043C38243C32053C3F753C3FB4308
:0A0AC900B10443C340D2AFD2912222
:03004B00020A9D09
:100A9D00C0E0C0D075D000C007AFC4EF2480700592
:0C0AAD0085C50DD200D007D0D0D0E032BB
:100AD300850FC5C2913000FDC200E4F5C53000FDAD
:0A0AE300D291C200850D0EAF0E2265
:0F0AED0075C83475CBFF75CAF3D2CA75985022FD
:0C0B18008F99C299C2B73099FDD2B72264
:10080000D2A0D2B7D2B6C2A1D2B3120A5020A00948
:10081000120A5830A0FD7F232220B709120A543053
:10082000B7FD7F302220B609120A5430B6FD7F2A68
:1008300022D2A1C2B3120A5020A009120A5830A035
:10084000FD7F332220B709120A5430B7FD7F3222D0
:1008500020B609120A5430B6FD7F3122D2A1D2B39C
:10086000C2B5120A5220A009120A5830A0FD7F36E4
:100870002220B709120A5430B7FD7F352220B6096D
:10088000120A5430B6FD7F3422D2A1D2B3D2B5C2FF
:10089000B4120A5420A009120A5830A0FD7F392250
:1008A00020B709120A5430B7FD7F382220B609124A
:0B08B0000A5430B6FD7F37227F002283
:030000000208BB38
:0C08BB00787FE4F6D8FD75812002090268
:100A2300BB010CE58229F582E5833AF583E0225088
:100A330006E92582F8E622BBFE06E92582F8E222D2
:0D0A4300E58229F582E5833AF583E49322EC
:1008C700020947E493A3F8E493A34003F68001F2F7
:1008D70008DFF48029E493A3F85407240CC8C33332
:1008E700C4540F4420C8834004F456800146F6DF01
:1008F700E4800B0102040810204080900B24E47E62
:10090700019360BCA3FF543F30E509541FFEE493F5
:10091700A360010ECF54C025E060A840B8E493A3BC
:10092700FAE493A3F8E493A3C8C582C8CAC583CAE7
:10093700F0A3C8C582C8CAC583CADFE9DEE780BE9F
:010B290000CB
:00000001FF
