:100B110053656C65637420667265713A0A203120F1
:100B2100487A004672657175656E6369613A0A00BB
:100B31000D20487A004672657175656E63696100C2
:0F0B41000D20487A0A000D526F64616E646F00D8
:050C2B000113C0C1002F
:080B8000D2B5D2B47F017E0062
:100B8800E4FDFCC3ED9FEC9E5015E4FBFA0BBB00A3
:100B9800010ABA04F8BBFBF50DBD00010C80E42284
:0E0C07008F80C2A5C2A6D2A7120B84C2A7225C
:0E0C15008F80D2A5C2A6D2A7120B84C2A7223E
:100B50007F38120C077F0A7E00120B887F0F120C61
:100B6000077F0A7E00120B887F01120C077F0A7E26
:100B700000120B887F81120C077F0A7E00020B880F
:100AC3008B0D8A0E890F751001120800640D600BDF
:100AD300120B507F80120C07E4F510AB0DAA0EA980
:100AE3000F8510827583001208196021B40A077FED
:100AF300C0120C078013AB0DAA0EA90F85108275C7
:0E0B03008300120819FF120C15051080CE2277
:10098C00750900750A01120B50120BF8120BC4D228
:10099C00AFC2947BFF7A0B7911120AC31208D18F64
:1009AC0008E508C39431402BE508D3943950247BD7
:1009BC00FF7A0B7924120AC3AF08120C157BFF7A4D
:1009CC000B7931120AC3E50824D0F50AE434FFF59B
:1009DC000980C9E508B42AC47BFF7A0B7936120A60
:1009EC00C3E50A2430FF120C157BFF7A0B794112F8
:1009FC000AC37BFF7A0B7947120AC3E50A25E0FD8F
:100A0C00E50933FC7E037FE81208468E0B8F0C122F
:100A1C000BDE8F08120C23D294AF0CAE0B120B888A
:0B0A2C00C294AF0CAE0B120B8880E4EC
:100BC40043C31043C38243C32053C3F753C3FB43FC
:0A0BD400B10443C340D2AFD2912216
:03004B00020BA8FD
:100BA800C0E0C0D075D000C007AFC4EF2480700586
:0C0BB80085C511D200D007D0D0D0E032AB
:100BDE008513C5C2913000FDC200E4F5C53000FD9D
:0A0BEE00D291C200851112AF12224D
:0F0BF80075C83475CBFF75CAF3D2CA75985022F1
:080C23008F99C2993099FD225E
:1008D100D2A0D2B7D2B6C2A1D2B3120B8020A00946
:1008E100120B8830A0FD7F232220B709120B843020
:1008F100B7FD7F302220B609120B8430B6FD7F2A66
:1009010022D2A1C2B3120B8020A009120B8830A001
:10091100FD7F332220B709120B8430B7FD7F3222CD
:1009210020B609120B8430B6FD7F3122D2A1D2B399
:10093100C2B5120B8220A009120B8830A0FD7F36B0
:100941002220B709120B8430B7FD7F352220B6096A
:10095100120B8430B6FD7F3422D2A1D2B3D2B5C2FC
:10096100B4120B8420A009120B8830A0FD7F39221C
:1009710020B709120B8430B7FD7F382220B6091247
:0B0981000B8430B6FD7F37227F002280
:03000000020A37BA
:0C0A3700787FE4F6D8FD758120020A7E6D
:10080000BB010689828A83E0225002E722BBFE02F6
:09081000E32289828A83E4932229
:10081900BB010CE58229F582E5833AF583E0225094
:1008290006E92582F8E622BBFE06E92582F8E222DE
:0D083900E58229F582E5833AF583E49322F8
:10084600C2D5EC30E709B2D5E4C39DFDE49CFCEECD
:1008560030E715B2D5E4C39FFFE49EFE12087CC3C1
:10086600E49DFDE49CFC800312087C30D507C3E4BC
:060876009FFFE49EFE223C
:100A430002098CE493A3F8E493A34003F68001F234
:100A530008DFF48029E493A3F85407240CC8C333B4
:100A6300C4540F4420C8834004F456800146F6DF83
:100A7300E4800B0102040810204080900C2BE47EDC
:100A8300019360BCA3FF543F30E509541FFEE49378
:100A9300A360010ECF54C025E060A840B8E493A33F
:100AA300FAE493A3F8E493A3C8C582C8CAC583CA6A
:100AB300F0A3C8C582C8CAC583CADFE9DEE780BE22
:010C300000C3
:10087C00BC000BBE0029EF8DF084FFADF022E4CC60
:10088C00F875F008EF2FFFEE33FEEC33FCEE9DEC29
:10089C00984005FCEE9DFE0FD5F0E9E4CEFD22ED6F
:1008AC00F8F5F0EE8420D21CFEADF075F008EF2FB9
:1008BC00FFED33FD4007985006D5F0F222C398FDAA
:0508CC000FD5F0EA2247
:00000001FF
