:030AC1004F69007A
:050ABB00010F55C10010
:080A1500D2B5D2B47F017E00CE
:100A1D00E4FDFCC3ED9FEC9E5015E4FBFA0BBB000F
:100A2D00010ABA04F8BBFBF50DBD00010C80E422F0
:0E0A93008F80C2A5C2A6D2A7120A19C2A7223E
:0E0AA1008F80D2A5C2A6D2A7120A19C2A72220
:10098B007F38120A937F0A7E00120A1D7F0F120A0C
:10099B00937F0A7E00120A1D7F01120A937F0A7E43
:1009AB0000120A1D7F81120A937F0A7E00020A1D24
:100947008B098A0A890B12098B7F80120A93E4F5B7
:100957000CAB09AA0AA90B850C827583001209E85A
:100967006021B40A077FC0120A938013AB09AA0A51
:10097700A90B850C827583001209E8FF120AA105ED
:040987000C80CE22F0
:1009BB00120A84120A6FD2AF7BFF7A0A79C112092D
:1009CB00477F4F120AAF7F6C120AAF7F61120AAFDB
:0D09DB00120A598F08120AAF120A1980F390
:100A6F0043C310D29143C38253C3F743C30443B16B
:050A7F000443C3402206
:03004B00020A3D69
:100A3D00C0E0C0D075D000C007AFC4EF24807005F2
:0C0A4D0085C50DD200D007D0D0D0E0321B
:100A5900850FC53000FDC200E4F5C53000FDC200B8
:060A6900850D0EAF0E2208
:0F0A840075C83475CBFF75CAF3D2CA7598502266
:0C0AAF008F99C299C2B73099FDD2B722CE
:10080000D2A0D2B7D2B6C2A1D2B3120A1520A00983
:10081000120A1D30A0FD7F232220B709120A1930C9
:10082000B7FD7F302220B609120A1930B6FD7F2AA3
:1008300022D2A1C2B3120A1520A009120A1D30A0AB
:10084000FD7F332220B709120A1930B7FD7F32220B
:1008500020B609120A1930B6FD7F3122D2A1D2B3D7
:10086000C2B5120A1720A009120A1D30A0FD7F365A
:100870002220B709120A1930B7FD7F352220B609A8
:10088000120A1930B6FD7F3422D2A1D2B3D2B5C23A
:10089000B4120A1920A009120A1D30A0FD7F3922C6
:1008A00020B709120A1930B7FD7F382220B6091285
:0B08B0000A1930B6FD7F37227F0022BE
:030000000208BB38
:0C08BB00787FE4F6D8FD75812002090268
:1009E800BB010CE58229F582E5833AF583E02250C4
:1009F80006E92582F8E622BBFE06E92582F8E2220E
:0D0A0800E58229F582E5833AF583E4932227
:1008C7000209BBE493A3F8E493A34003F68001F283
:1008D70008DFF48029E493A3F85407240CC8C33332
:1008E700C4540F4420C8834004F456800146F6DF01
:1008F700E4800B0102040810204080900ABBE47ECC
:10090700019360BCA3FF543F30E509541FFEE493F5
:10091700A360010ECF54C025E060A840B8E493A3BC
:10092700FAE493A3F8E493A3C8C582C8CAC583CAE7
:10093700F0A3C8C582C8CAC583CADFE9DEE780BE9F
:010AC0000035
:00000001FF
