:100BE50053656C65637420667265713A0A2031201D
:100BF500487A004672657175656E6369613A0A00E7
:100C05000D30487A004672657175656E6369613AA3
:100C150020000D30487A0A000D526F64616E646FD2
:010C250000CE
:050D20000119C0C10033
:080C5600D2B5D2B47F017E008B
:100C5E00E4FDFCC3ED9FEC9E5015E4FBFA0BBB00CC
:100C6E00010ABA04F8BBFBF50DBD00010C80E422AD
:100CDD00E4F517F5188E1A8F1BE51B451A70FA22CD
:100CCC00758900438911758CFF758A9BD2A9D28CCA
:010CDC0022F5
:03000B00020B0CD9
:100B0C00C0E0C0D075D000C000C006C007C28C05C4
:100B1C001DE51D7002051C0518E51870020517D39C
:100B2C00E51D94FFE51C648094804006751C0075DF
:100B3C001D00AF16EF3395E0FED3E51D9FEE6480EC
:100B4C00F8E51C6480984004D2948002C294D3E5EA
:100B5C00189414E51764809480401B751700751861
:100B6C0000D3E51B9400E51A648094804008E51BD3
:100B7C00151B7002151A758CFF758A9BC28DD28C51
:0B0B8C00D007D006D000D0D0D0E0325F
:0E0CFC008F80C2A5C2A6D2A7120C5AC2A72290
:0E0D0A008F80D2A5C2A6D2A7120C5AC2A72271
:100C26007F38120CFC7F0A7E00120C5E7F0F120CBE
:100C3600FC7F0A7E00120C5E7F01120CFC7F0A7E8E
:100C460000120C5E7F81120CFC7F0A7E00020C5E95
:100B97008B118A1289137514011208F4640D600B06
:100BA700120C267F80120CFCE4F514AB11AA12A9D3
:100BB7001385148275830012090D6021B40A077F1B
:100BC700C0120CFC8013AB11AA12A91385148275ED
:0E0BD700830012090DFF120D0A051480CE22B4
:10080000750B00750C01120C26120CED120CB4D2F3
:10081000AFD2947BFF7A0B79E5120B971209C58F43
:1008200008E508C39431402BE508D3943950247B64
:10083000FF7A0B79F8120B97AF08120D0A7BFF7A3B
:100840000C7905120B97E50824D0F50CE434FFF57C
:100850000B80C9E508B42AC47BFF7A0C790A120B15
:1008600097E50C2430FF120D0A7BFF7A0C791712E2
:100870000B977BFF7A0C791D120B97120CCCE50CB1
:10088000AE0B7802C333CE33CED8F9FDAC067E0072
:100890007F6412093A8E0D8F0E1209C5BF2A08D245
:1008A000941209C5BF2AFAC2A9D294E4F50FF51033
:1008B000F509F50A120C9AEF3395E0FEEF2510F5D5
:1008C00010EE350FF50F050AE50A70020509C3940D
:1008D00004E5096480948040DBAE0FAF107C007D9E
:1008E0000412093A8F08120D18D2A9AF0EAE0D12DC
:0408F0000CDD80A5F6
:100CB40043C31043C38243C32053C3F753C3FB430B
:080CC400B10443C340D29122A8
:03004B00020C7E26
:100C7E00C0E0C0D075D000C007AFC4EF24807005AF
:0C0C8E0085C515D200D007D0D0D0E032D0
:100C9A008519C5C2913000FDC200E4F5C53000FDDA
:0A0CAA00D291C200851516AF162284
:0F0CED0075C83475CBFF75CAF3D2CA75985022FB
:080D18008F99C2993099FD2268
:1009C500D2A0D2B7D2B6C2A1D2B3120C5620A0097A
:1009D500120C5E30A0FD7F232220B709120C5A307D
:1009E500B7FD7F302220B609120C5A30B6FD7F2A9A
:1009F50022D2A1C2B3120C5620A009120C5E30A05F
:100A0500FD7F332220B709120C5A30B7FD7F322201
:100A150020B609120C5A30B6FD7F3122D2A1D2B3CD
:100A2500C2B5120C5820A009120C5E30A0FD7F360D
:100A35002220B709120C5A30B7FD7F352220B6099E
:100A4500120C5A30B6FD7F3422D2A1D2B3D2B5C230
:100A5500B4120C5A20A009120C5E30A0FD7F392279
:100A650020B709120C5A30B7FD7F382220B609127B
:0B0A75000C5A30B6FD7F37227F0022B4
:03000000020A8071
:0C0A8000787FE4F6D8FD758120020AC7DB
:1008F400BB010689828A83E0225002E722BBFE0202
:09090400E32289828A83E4932234
:10090D00BB010CE58229F582E5833AF583E022509F
:10091D0006E92582F8E622BBFE06E92582F8E222E9
:0D092D00E58229F582E5833AF583E4932203
:10093A00C2D5EC30E709B2D5E4C39DFDE49CFCEED8
:10094A0030E715B2D5E4C39FFFE49EFE120970C3D7
:10095A00E49DFDE49CFC800312097030D507C3E4D2
:06096A009FFFE49EFE2247
:100A8C00020800E493A3F8E493A34003F68001F278
:100A9C0008DFF48029E493A3F85407240CC8C3336B
:100AAC00C4540F4420C8834004F456800146F6DF3A
:100ABC00E4800B0102040810204080900D20E47E9D
:100ACC00019360BCA3FF543F30E509541FFEE4932F
:100ADC00A360010ECF54C025E060A840B8E493A3F6
:100AEC00FAE493A3F8E493A3C8C582C8CAC583CA21
:100AFC00F0A3C8C582C8CAC583CADFE9DEE780BED9
:010D250000CD
:10097000BC000BBE0029EF8DF084FFADF022E4CC6B
:10098000F875F008EF2FFFEE33FEEC33FCEE9DEC34
:10099000984005FCEE9DFE0FD5F0E9E4CEFD22ED7A
:1009A000F8F5F0EE8420D21CFEADF075F008EF2FC4
:1009B000FFED33FD4007985006D5F0F222C398FDB5
:0509C0000FD5F0EA2252
:00000001FF
